S01000006C6162325F332E322E73726563C1
S11300000C9434000C9451000C9451000C94510045
S11300100C9451000C9451000C9451000C94510018
S11300200C9451000C9451000C9451000C94510008
S11300300C9451000C9451000C9451000C945100F8
S11300400C9451000C9451000C9451000C945100E8
S11300500C9451000C9451000C9451000C945100D8
S11300600C9451000C94510011241FBECFEFD8E022
S1130070DEBFCDBF11E0A0E0B1E0E8E3F2E002C0F2
S113008005900D92AC31B107D9F721E0ACE1B1E0B4
S113009001C01D92A232B207E1F70E9489000C94BC
S11300A01A010C940000CF93C82F8A3019F48DE004
S11300B00E945300E0ECF0E0808185FFFDCFC09307
S11300C0C60080E090E0CF910895E0ECF0E08081FC
S11300D08823ECF78091C60090E008951092C50043
S11300E087E68093C400E0ECF0E080818D7F80831C
S11300F086E08093C20088E18093C100ECE1F1E0E6
S11301008EE091E09383828380E091E09183808309
S113011008950E946E0017B8229A239A249A85B1F2
S11301208C6185B9409AECE7F0E08081806480833B
S1130130EAE7F0E08081806A808380818760808341
S1130140808180648083EBE7F0E08081887F808316
S1130150E8E7F0E080819181892B41F080819181F1
S11301608138910518F485B1837E85B980819181A8
S11301708138910548F0808191818130914020F44B
S113018085B1877E85B92A9A808191818130914099
S113019048F0808191818138914020F485B18B7E33
S11301A085B92B9A808191818138914048F0808172
S11301B091818130924020F42C9885B18C6085B96E
S11301C0808191818130924048F080819181813891
S11301D0924020F485B1837F85B92C9A80819181E6
S11301E08138924048F0808191818130934020F49D
S11301F02B9885B1846185B9808191818130934048
S113020048F0808191818138934020F42A9885B107
S1130210886185B9808191818138934008F49ACFAF
S1130220808191818130944008F094CF85B18C61B4
S10B023085B990CFF894FFCFCB
S1130238000000010000000000006500000000004C
S10F024800020000000053000000000051
S9030000FC
